{
  "_format": "hh3-artifact-1",
  "contractName": "JobEscrow",
  "sourceName": "contracts/JobEscrow.sol",
  "abi": [
    {
      "inputs": [
        {
          "internalType": "address",
          "name": "_client",
          "type": "address"
        },
        {
          "internalType": "address",
          "name": "_platform",
          "type": "address"
        },
        {
          "internalType": "address",
          "name": "_arbitrator",
          "type": "address"
        },
        {
          "internalType": "uint256",
          "name": "_platformFeePercent",
          "type": "uint256"
        },
        {
          "internalType": "string",
          "name": "_jobId",
          "type": "string"
        },
        {
          "internalType": "string",
          "name": "_jobTitle",
          "type": "string"
        }
      ],
      "stateMutability": "nonpayable",
      "type": "constructor"
    },
    {
      "anonymous": false,
      "inputs": [
        {
          "indexed": true,
          "internalType": "address",
          "name": "initiator",
          "type": "address"
        },
        {
          "indexed": false,
          "internalType": "uint256",
          "name": "timestamp",
          "type": "uint256"
        }
      ],
      "name": "DisputeInitiated",
      "type": "event"
    },
    {
      "anonymous": false,
      "inputs": [
        {
          "indexed": true,
          "internalType": "address",
          "name": "resolver",
          "type": "address"
        },
        {
          "indexed": false,
          "internalType": "bool",
          "name": "favorFreelancer",
          "type": "bool"
        }
      ],
      "name": "DisputeResolved",
      "type": "event"
    },
    {
      "anonymous": false,
      "inputs": [
        {
          "indexed": true,
          "internalType": "address",
          "name": "freelancer",
          "type": "address"
        }
      ],
      "name": "FreelancerAssigned",
      "type": "event"
    },
    {
      "anonymous": false,
      "inputs": [
        {
          "indexed": true,
          "internalType": "address",
          "name": "client",
          "type": "address"
        },
        {
          "indexed": false,
          "internalType": "uint256",
          "name": "amount",
          "type": "uint256"
        }
      ],
      "name": "JobFunded",
      "type": "event"
    },
    {
      "anonymous": false,
      "inputs": [
        {
          "indexed": true,
          "internalType": "address",
          "name": "freelancer",
          "type": "address"
        },
        {
          "indexed": false,
          "internalType": "uint256",
          "name": "amount",
          "type": "uint256"
        },
        {
          "indexed": true,
          "internalType": "address",
          "name": "platform",
          "type": "address"
        },
        {
          "indexed": false,
          "internalType": "uint256",
          "name": "fee",
          "type": "uint256"
        }
      ],
      "name": "PaymentReleased",
      "type": "event"
    },
    {
      "anonymous": false,
      "inputs": [
        {
          "indexed": true,
          "internalType": "address",
          "name": "client",
          "type": "address"
        },
        {
          "indexed": false,
          "internalType": "uint256",
          "name": "amount",
          "type": "uint256"
        }
      ],
      "name": "Refunded",
      "type": "event"
    },
    {
      "anonymous": false,
      "inputs": [
        {
          "indexed": true,
          "internalType": "address",
          "name": "client",
          "type": "address"
        }
      ],
      "name": "WorkApproved",
      "type": "event"
    },
    {
      "anonymous": false,
      "inputs": [
        {
          "indexed": true,
          "internalType": "address",
          "name": "freelancer",
          "type": "address"
        },
        {
          "indexed": false,
          "internalType": "uint256",
          "name": "timestamp",
          "type": "uint256"
        }
      ],
      "name": "WorkSubmitted",
      "type": "event"
    },
    {
      "inputs": [],
      "name": "amount",
      "outputs": [
        {
          "internalType": "uint256",
          "name": "",
          "type": "uint256"
        }
      ],
      "stateMutability": "view",
      "type": "function"
    },
    {
      "inputs": [],
      "name": "approvalTimeout",
      "outputs": [
        {
          "internalType": "uint256",
          "name": "",
          "type": "uint256"
        }
      ],
      "stateMutability": "view",
      "type": "function"
    },
    {
      "inputs": [],
      "name": "approveWork",
      "outputs": [],
      "stateMutability": "nonpayable",
      "type": "function"
    },
    {
      "inputs": [],
      "name": "arbitrator",
      "outputs": [
        {
          "internalType": "address",
          "name": "",
          "type": "address"
        }
      ],
      "stateMutability": "view",
      "type": "function"
    },
    {
      "inputs": [
        {
          "internalType": "address",
          "name": "_freelancer",
          "type": "address"
        }
      ],
      "name": "assignFreelancer",
      "outputs": [],
      "stateMutability": "nonpayable",
      "type": "function"
    },
    {
      "inputs": [],
      "name": "cancelAndRefund",
      "outputs": [],
      "stateMutability": "nonpayable",
      "type": "function"
    },
    {
      "inputs": [],
      "name": "client",
      "outputs": [
        {
          "internalType": "address",
          "name": "",
          "type": "address"
        }
      ],
      "stateMutability": "view",
      "type": "function"
    },
    {
      "inputs": [],
      "name": "disputeTimeout",
      "outputs": [
        {
          "internalType": "uint256",
          "name": "",
          "type": "uint256"
        }
      ],
      "stateMutability": "view",
      "type": "function"
    },
    {
      "inputs": [],
      "name": "freelancer",
      "outputs": [
        {
          "internalType": "address",
          "name": "",
          "type": "address"
        }
      ],
      "stateMutability": "view",
      "type": "function"
    },
    {
      "inputs": [],
      "name": "freelancerAmount",
      "outputs": [
        {
          "internalType": "uint256",
          "name": "",
          "type": "uint256"
        }
      ],
      "stateMutability": "view",
      "type": "function"
    },
    {
      "inputs": [
        {
          "internalType": "uint256",
          "name": "_platformFeePercent",
          "type": "uint256"
        }
      ],
      "name": "fundEscrow",
      "outputs": [],
      "stateMutability": "payable",
      "type": "function"
    },
    {
      "inputs": [],
      "name": "getBalance",
      "outputs": [
        {
          "internalType": "uint256",
          "name": "",
          "type": "uint256"
        }
      ],
      "stateMutability": "view",
      "type": "function"
    },
    {
      "inputs": [],
      "name": "getJobDetails",
      "outputs": [
        {
          "internalType": "address",
          "name": "_client",
          "type": "address"
        },
        {
          "internalType": "address",
          "name": "_freelancer",
          "type": "address"
        },
        {
          "internalType": "uint256",
          "name": "_amount",
          "type": "uint256"
        },
        {
          "internalType": "uint256",
          "name": "_platformFee",
          "type": "uint256"
        },
        {
          "internalType": "uint256",
          "name": "_freelancerAmount",
          "type": "uint256"
        },
        {
          "internalType": "enum JobEscrow.JobStatus",
          "name": "_status",
          "type": "uint8"
        },
        {
          "internalType": "string",
          "name": "_jobId",
          "type": "string"
        },
        {
          "internalType": "string",
          "name": "_jobTitle",
          "type": "string"
        }
      ],
      "stateMutability": "view",
      "type": "function"
    },
    {
      "inputs": [],
      "name": "initiateDispute",
      "outputs": [],
      "stateMutability": "nonpayable",
      "type": "function"
    },
    {
      "inputs": [],
      "name": "jobId",
      "outputs": [
        {
          "internalType": "string",
          "name": "",
          "type": "string"
        }
      ],
      "stateMutability": "view",
      "type": "function"
    },
    {
      "inputs": [],
      "name": "jobTitle",
      "outputs": [
        {
          "internalType": "string",
          "name": "",
          "type": "string"
        }
      ],
      "stateMutability": "view",
      "type": "function"
    },
    {
      "inputs": [],
      "name": "platform",
      "outputs": [
        {
          "internalType": "address",
          "name": "",
          "type": "address"
        }
      ],
      "stateMutability": "view",
      "type": "function"
    },
    {
      "inputs": [],
      "name": "platformFee",
      "outputs": [
        {
          "internalType": "uint256",
          "name": "",
          "type": "uint256"
        }
      ],
      "stateMutability": "view",
      "type": "function"
    },
    {
      "inputs": [],
      "name": "refundToClient",
      "outputs": [],
      "stateMutability": "nonpayable",
      "type": "function"
    },
    {
      "inputs": [],
      "name": "releaseFundsToFreelancer",
      "outputs": [],
      "stateMutability": "nonpayable",
      "type": "function"
    },
    {
      "inputs": [],
      "name": "status",
      "outputs": [
        {
          "internalType": "enum JobEscrow.JobStatus",
          "name": "",
          "type": "uint8"
        }
      ],
      "stateMutability": "view",
      "type": "function"
    },
    {
      "inputs": [],
      "name": "submitWork",
      "outputs": [],
      "stateMutability": "nonpayable",
      "type": "function"
    },
    {
      "inputs": [],
      "name": "workSubmittedAt",
      "outputs": [
        {
          "internalType": "uint256",
          "name": "",
          "type": "uint256"
        }
      ],
      "stateMutability": "view",
      "type": "function"
    }
  ],
  "bytecode": "0x608060405262093a806008556203f48060095534801561001d575f5ffd5b5060405161173838038061173883398101604081905261003c916102b8565b6001600160a01b0386166100975760405162461bcd60e51b815260206004820152601660248201527f496e76616c696420636c69656e7420616464726573730000000000000000000060448201526064015b60405180910390fd5b6001600160a01b0385166100ed5760405162461bcd60e51b815260206004820152601860248201527f496e76616c696420706c6174666f726d20616464726573730000000000000000604482015260640161008e565b6001600160a01b0384166101435760405162461bcd60e51b815260206004820152601a60248201527f496e76616c69642061726269747261746f722061646472657373000000000000604482015260640161008e565b60648311156101945760405162461bcd60e51b815260206004820152601460248201527f4665652070657263656e7420746f6f2068696768000000000000000000000000604482015260640161008e565b5f80546001600160a01b038089166001600160a01b03199283161790925560028054888416908316179055600a805492871692909116919091179055600b6101dc83826103da565b50600c6101e982826103da565b50506006805460ff19169055506104949350505050565b80516001600160a01b0381168114610216575f5ffd5b919050565b634e487b7160e01b5f52604160045260245ffd5b5f82601f83011261023e575f5ffd5b81516001600160401b038111156102575761025761021b565b604051601f8201601f19908116603f011681016001600160401b03811182821017156102855761028561021b565b60405281815283820160200185101561029c575f5ffd5b8160208501602083015e5f918101602001919091529392505050565b5f5f5f5f5f5f60c087890312156102cd575f5ffd5b6102d687610200565b95506102e460208801610200565b94506102f260408801610200565b6060880151608089015191955093506001600160401b03811115610314575f5ffd5b61032089828a0161022f565b60a089015190935090506001600160401b0381111561033d575f5ffd5b61034989828a0161022f565b9150509295509295509295565b600181811c9082168061036a57607f821691505b60208210810361038857634e487b7160e01b5f52602260045260245ffd5b50919050565b601f8211156103d557805f5260205f20601f840160051c810160208510156103b35750805b601f840160051c820191505b818110156103d2575f81556001016103bf565b50505b505050565b81516001600160401b038111156103f3576103f361021b565b610407816104018454610356565b8461038e565b6020601f821160018114610439575f83156104225750848201515b5f19600385901b1c1916600184901b1784556103d2565b5f84815260208120601f198516915b828110156104685787850151825560209485019460019092019101610448565b508482101561048557868401515f19600387901b60f8161c191681555b50505050600190811b01905550565b611297806104a15f395ff3fe60806040526004361061013c575f3560e01c806371c2aa56116100b3578063c04c22a41161006d578063c04c22a41461032c578063c2939d9714610341578063c7a2577714610355578063c9c31af514610369578063ddb3a5321461037c578063ec0da43314610390575f5ffd5b806371c2aa561461029b57806392a1493a146102b05780639704ecb6146102c4578063a37dda2c146102d9578063aa8c217c146102f8578063ad84d4bc1461030d575f5ffd5b8063200d2ed211610104578063200d2ed2146101ed57806326232a2e146102135780633ff4b938146102285780634acc296f146102495780634bde38c81461025d5780636cc6cde11461027c575f5ffd5b80630e8c42f614610140578063109e94cf1461017157806312065fe0146101a757806312ddbf0e146101c35780632009dc65146101d9575b5f5ffd5b34801561014b575f5ffd5b506101546103a5565b604051610168989796959493929190611069565b60405180910390f35b34801561017c575f5ffd5b505f5461018f906001600160a01b031681565b6040516001600160a01b039091168152602001610168565b3480156101b2575f5ffd5b50475b604051908152602001610168565b3480156101ce575f5ffd5b506101d7610521565b005b3480156101e4575f5ffd5b506101d76106f4565b3480156101f8575f5ffd5b506006546102069060ff1681565b60405161016891906110d7565b34801561021e575f5ffd5b506101b560045481565b348015610233575f5ffd5b5061023c61077a565b60405161016891906110eb565b348015610254575f5ffd5b506101d7610806565b348015610268575f5ffd5b5060025461018f906001600160a01b031681565b348015610287575f5ffd5b50600a5461018f906001600160a01b031681565b3480156102a6575f5ffd5b506101b560055481565b3480156102bb575f5ffd5b506101d7610949565b3480156102cf575f5ffd5b506101b560075481565b3480156102e4575f5ffd5b5060015461018f906001600160a01b031681565b348015610303575f5ffd5b506101b560035481565b348015610318575f5ffd5b506101d7610327366004611104565b610a35565b348015610337575f5ffd5b506101b560085481565b34801561034c575f5ffd5b5061023c610ba0565b348015610360575f5ffd5b506101d7610bad565b6101d761037736600461112a565b610c8e565b348015610387575f5ffd5b506101d7610dbd565b34801561039b575f5ffd5b506101b560095481565b5f5f5f5f5f5f6060805f5f9054906101000a90046001600160a01b031660015f9054906101000a90046001600160a01b031660035460045460055460065f9054906101000a900460ff16600b600c8180546103ff90611141565b80601f016020809104026020016040519081016040528092919081815260200182805461042b90611141565b80156104765780601f1061044d57610100808354040283529160200191610476565b820191905f5260205f20905b81548152906001019060200180831161045957829003601f168201915b5050505050915080805461048990611141565b80601f01602080910402602001604051908101604052809291908181526020018280546104b590611141565b80156105005780601f106104d757610100808354040283529160200191610500565b820191905f5260205f20905b8154815290600101906020018083116104e357829003601f168201915b50505050509050975097509750975097509750975097509091929394959697565b600a546001600160a01b031633146105805760405162461bcd60e51b815260206004820152601d60248201527f4f6e6c792061726269747261746f722063616e2063616c6c207468697300000060448201526064015b60405180910390fd5b6005806006805460ff169081111561059a5761059a611007565b146105b75760405162461bcd60e51b815260040161057790611179565b6006805460ff191681179055600a546040515f81526001600160a01b03909116907fcea2bc33eef9c2bacf266c2b7b17f8f2db3c22582cb56c00467843e85d98021e9060200160405180910390a25f80546003546040516001600160a01b03909216915b5f6040518083038185875af1925050503d805f8114610655576040519150601f19603f3d011682016040523d82523d5f602084013e61065a565b606091505b50509050806106ab5760405162461bcd60e51b815260206004820152601a60248201527f4661696c656420746f20726566756e6420746f20636c69656e740000000000006044820152606401610577565b5f546003546040519081526001600160a01b03909116907fd7dee2702d63ad89917b6a4da9981c90c4d24f8c2bdfd64c604ecae57d8d0651906020015b60405180910390a25050565b5f546001600160a01b0316331461071d5760405162461bcd60e51b8152600401610577906111ba565b6001806006805460ff169081111561073757610737611007565b146107545760405162461bcd60e51b815260040161057790611179565b6006805460ff1916811790555f80546003546040516001600160a01b039092169161061b565b600c805461078790611141565b80601f01602080910402602001604051908101604052809291908181526020018280546107b390611141565b80156107fe5780601f106107d5576101008083540402835291602001916107fe565b820191905f5260205f20905b8154815290600101906020018083116107e157829003601f168201915b505050505081565b6001546001600160a01b031633146108605760405162461bcd60e51b815260206004820152601d60248201527f4f6e6c7920667265656c616e6365722063616e2063616c6c20746869730000006044820152606401610577565b6003806006805460ff169081111561087a5761087a611007565b146108975760405162461bcd60e51b815260040161057790611179565b6009546007546108a79190611205565b4210156108f65760405162461bcd60e51b815260206004820152601c60248201527f417070726f76616c2074696d656f7574206e6f742072656163686564000000006044820152606401610577565b6006805460ff191660051790556001546040514281526001600160a01b03909116907fd1665e3ab6890c81ef4766b77d7381ef620efbcb6f8d2ab3d52cea88a6463c22906020015b60405180910390a250565b600a546001600160a01b031633146109a35760405162461bcd60e51b815260206004820152601d60248201527f4f6e6c792061726269747261746f722063616e2063616c6c20746869730000006044820152606401610577565b6005806006805460ff16908111156109bd576109bd611007565b146109da5760405162461bcd60e51b815260040161057790611179565b6006805460ff19166004179055600a54604051600181526001600160a01b03909116907fcea2bc33eef9c2bacf266c2b7b17f8f2db3c22582cb56c00467843e85d98021e9060200160405180910390a2610a32610e63565b50565b5f546001600160a01b03163314610a5e5760405162461bcd60e51b8152600401610577906111ba565b6001806006805460ff1690811115610a7857610a78611007565b14610a955760405162461bcd60e51b815260040161057790611179565b6001600160a01b038216610aeb5760405162461bcd60e51b815260206004820152601a60248201527f496e76616c696420667265656c616e63657220616464726573730000000000006044820152606401610577565b5f546001600160a01b0390811690831603610b485760405162461bcd60e51b815260206004820152601b60248201527f436c69656e742063616e6e6f7420626520667265656c616e63657200000000006044820152606401610577565b600180546001600160a01b0384166001600160a01b031990911681179091556006805460ff191660021790556040517f6b493de20a114cabad54f840ad7bf515cdbf07ae1024cbd8960f15c5101d18e3905f90a25050565b600b805461078790611141565b6001546001600160a01b03163314610c075760405162461bcd60e51b815260206004820152601d60248201527f4f6e6c7920667265656c616e6365722063616e2063616c6c20746869730000006044820152606401610577565b6002806006805460ff1690811115610c2157610c21611007565b14610c3e5760405162461bcd60e51b815260040161057790611179565b4260078190556006805460ff191660031790556001546040519182526001600160a01b0316907fd5fa830ddbbfe2bf393273ad9eda79041bc379e4bb80be3ca76762745bb3cf709060200161093e565b5f546001600160a01b03163314610cb75760405162461bcd60e51b8152600401610577906111ba565b5f806006805460ff1690811115610cd057610cd0611007565b14610ced5760405162461bcd60e51b815260040161057790611179565b5f3411610d3c5760405162461bcd60e51b815260206004820152601d60248201527f416d6f756e74206d7573742062652067726561746572207468616e20300000006044820152606401610577565b346003819055606490610d50908490611218565b610d5a919061122f565b6004819055600354610d6c919061124e565b6005556006805460ff191660011790555f546003546040519081526001600160a01b03909116907f543137dade665d4d6ce455fcd386a7703dad323aedf71d16ad6116042bcd23d5906020016106e8565b5f546001600160a01b03163314610de65760405162461bcd60e51b8152600401610577906111ba565b6003806006805460ff1690811115610e0057610e00611007565b14610e1d5760405162461bcd60e51b815260040161057790611179565b6006805460ff191660041790555f80546040516001600160a01b03909116917f3bf6526b36cdcf4678108c9b66a1b7a4bb33bc49d0ace628f7ee735ccc2b8d0391a2610a325b6001546005546040515f926001600160a01b031691908381818185875af1925050503d805f8114610eaf576040519150601f19603f3d011682016040523d82523d5f602084013e610eb4565b606091505b5050905080610f055760405162461bcd60e51b815260206004820152601c60248201527f4661696c656420746f2073656e6420746f20667265656c616e636572000000006044820152606401610577565b6002546004546040515f926001600160a01b031691908381818185875af1925050503d805f8114610f51576040519150601f19603f3d011682016040523d82523d5f602084013e610f56565b606091505b5050905080610fa75760405162461bcd60e51b815260206004820152601a60248201527f4661696c656420746f2073656e6420746f20706c6174666f726d0000000000006044820152606401610577565b6002546001546005546004546040516001600160a01b039485169493909316927fb0939e51479f2d3225b89bad9d83706b5f6bf7d173e4ec9295afe6d40ade9fac92610ffb92908252602082015260400190565b60405180910390a35050565b634e487b7160e01b5f52602160045260245ffd5b6007811061103757634e487b7160e01b5f52602160045260245ffd5b9052565b5f81518084528060208401602086015e5f602082860101526020601f19601f83011685010191505092915050565b6001600160a01b0389811682528816602082015260408101879052606081018690526080810185905261109f60a082018561101b565b61010060c08201525f6110b661010083018561103b565b82810360e08401526110c8818561103b565b9b9a5050505050505050505050565b602081016110e5828461101b565b92915050565b602081525f6110fd602083018461103b565b9392505050565b5f60208284031215611114575f5ffd5b81356001600160a01b03811681146110fd575f5ffd5b5f6020828403121561113a575f5ffd5b5035919050565b600181811c9082168061115557607f821691505b60208210810361117357634e487b7160e01b5f52602260045260245ffd5b50919050565b60208082526021908201527f496e76616c69642073746174757320666f722074686973206f7065726174696f6040820152603760f91b606082015260800190565b60208082526019908201527f4f6e6c7920636c69656e742063616e2063616c6c207468697300000000000000604082015260600190565b634e487b7160e01b5f52601160045260245ffd5b808201808211156110e5576110e56111f1565b80820281158282048414176110e5576110e56111f1565b5f8261124957634e487b7160e01b5f52601260045260245ffd5b500490565b818103818111156110e5576110e56111f156fea26469706673582212205a410130cb957358d5a4f86285dd257c625e1254ac3d522becdbfb2c84567a9b64736f6c634300081c0033",
  "linkReferences": {},
  "deployedLinkReferences": {},
  "immutableReferences": {},
  "inputSourceName": "project/contracts/JobEscrow.sol",
  "buildInfoId": "solc-0_8_28-7c299cefcff23e2c587f5be49af34790f6e3143d"
}